{
  "_format": "hh-sol-artifact-1",
  "contractName": "EliteHealthSystem",
  "sourceName": "contracts/EliteHealthSystem.sol",
  "abi": [
    {
      "inputs": [],
      "stateMutability": "nonpayable",
      "type": "constructor"
    },
    {
      "inputs": [],
      "name": "AlreadyRegistered",
      "type": "error"
    },
    {
      "inputs": [],
      "name": "DoctorNotApproved",
      "type": "error"
    },
    {
      "inputs": [
        {
          "internalType": "uint256",
          "name": "required",
          "type": "uint256"
        },
        {
          "internalType": "uint256",
          "name": "sent",
          "type": "uint256"
        }
      ],
      "name": "InsufficientPayment",
      "type": "error"
    },
    {
      "inputs": [],
      "name": "NotAdmin",
      "type": "error"
    },
    {
      "inputs": [],
      "name": "NotDoctor",
      "type": "error"
    },
    {
      "inputs": [],
      "name": "NotPatient",
      "type": "error"
    },
    {
      "anonymous": false,
      "inputs": [
        {
          "indexed": true,
          "internalType": "uint256",
          "name": "appointmentId",
          "type": "uint256"
        },
        {
          "indexed": false,
          "internalType": "address",
          "name": "patient",
          "type": "address"
        },
        {
          "indexed": false,
          "internalType": "address",
          "name": "doctor",
          "type": "address"
        }
      ],
      "name": "AppointmentBooked",
      "type": "event"
    },
    {
      "anonymous": false,
      "inputs": [
        {
          "indexed": true,
          "internalType": "address",
          "name": "doctor",
          "type": "address"
        }
      ],
      "name": "DoctorApproved",
      "type": "event"
    },
    {
      "anonymous": false,
      "inputs": [
        {
          "indexed": true,
          "internalType": "address",
          "name": "doctor",
          "type": "address"
        },
        {
          "indexed": false,
          "internalType": "string",
          "name": "specialization",
          "type": "string"
        }
      ],
      "name": "DoctorRegistered",
      "type": "event"
    },
    {
      "anonymous": false,
      "inputs": [
        {
          "indexed": true,
          "internalType": "address",
          "name": "patient",
          "type": "address"
        },
        {
          "indexed": false,
          "internalType": "string",
          "name": "cid",
          "type": "string"
        }
      ],
      "name": "MedicalRecordStored",
      "type": "event"
    },
    {
      "anonymous": false,
      "inputs": [
        {
          "indexed": true,
          "internalType": "address",
          "name": "previousOwner",
          "type": "address"
        },
        {
          "indexed": true,
          "internalType": "address",
          "name": "newOwner",
          "type": "address"
        }
      ],
      "name": "OwnershipTransferred",
      "type": "event"
    },
    {
      "anonymous": false,
      "inputs": [
        {
          "indexed": true,
          "internalType": "address",
          "name": "patient",
          "type": "address"
        },
        {
          "indexed": false,
          "internalType": "string",
          "name": "patientId",
          "type": "string"
        }
      ],
      "name": "PatientRegistered",
      "type": "event"
    },
    {
      "inputs": [],
      "name": "appointmentFee",
      "outputs": [
        {
          "internalType": "uint256",
          "name": "",
          "type": "uint256"
        }
      ],
      "stateMutability": "view",
      "type": "function"
    },
    {
      "inputs": [
        {
          "internalType": "uint256",
          "name": "",
          "type": "uint256"
        }
      ],
      "name": "appointments",
      "outputs": [
        {
          "internalType": "address",
          "name": "patient",
          "type": "address"
        },
        {
          "internalType": "address",
          "name": "doctor",
          "type": "address"
        },
        {
          "internalType": "uint256",
          "name": "date",
          "type": "uint256"
        },
        {
          "internalType": "uint256",
          "name": "fee",
          "type": "uint256"
        },
        {
          "internalType": "bool",
          "name": "completed",
          "type": "bool"
        }
      ],
      "stateMutability": "view",
      "type": "function"
    },
    {
      "inputs": [
        {
          "internalType": "address",
          "name": "_doctor",
          "type": "address"
        }
      ],
      "name": "approveDoctor",
      "outputs": [],
      "stateMutability": "nonpayable",
      "type": "function"
    },
    {
      "inputs": [
        {
          "internalType": "address",
          "name": "",
          "type": "address"
        }
      ],
      "name": "approvedDoctors",
      "outputs": [
        {
          "internalType": "bool",
          "name": "",
          "type": "bool"
        }
      ],
      "stateMutability": "view",
      "type": "function"
    },
    {
      "inputs": [
        {
          "internalType": "address",
          "name": "_doctor",
          "type": "address"
        }
      ],
      "name": "bookAppointment",
      "outputs": [
        {
          "internalType": "uint256",
          "name": "",
          "type": "uint256"
        }
      ],
      "stateMutability": "payable",
      "type": "function"
    },
    {
      "inputs": [],
      "name": "doctorFee",
      "outputs": [
        {
          "internalType": "uint256",
          "name": "",
          "type": "uint256"
        }
      ],
      "stateMutability": "view",
      "type": "function"
    },
    {
      "inputs": [
        {
          "internalType": "address",
          "name": "_patient",
          "type": "address"
        }
      ],
      "name": "getMedicalRecords",
      "outputs": [
        {
          "internalType": "string[]",
          "name": "",
          "type": "string[]"
        }
      ],
      "stateMutability": "view",
      "type": "function"
    },
    {
      "inputs": [],
      "name": "owner",
      "outputs": [
        {
          "internalType": "address",
          "name": "",
          "type": "address"
        }
      ],
      "stateMutability": "view",
      "type": "function"
    },
    {
      "inputs": [],
      "name": "patientFee",
      "outputs": [
        {
          "internalType": "uint256",
          "name": "",
          "type": "uint256"
        }
      ],
      "stateMutability": "view",
      "type": "function"
    },
    {
      "inputs": [
        {
          "internalType": "address",
          "name": "",
          "type": "address"
        },
        {
          "internalType": "uint256",
          "name": "",
          "type": "uint256"
        }
      ],
      "name": "patientRecords",
      "outputs": [
        {
          "internalType": "string",
          "name": "",
          "type": "string"
        }
      ],
      "stateMutability": "view",
      "type": "function"
    },
    {
      "inputs": [
        {
          "internalType": "string",
          "name": "_specialization",
          "type": "string"
        }
      ],
      "name": "registerDoctor",
      "outputs": [],
      "stateMutability": "payable",
      "type": "function"
    },
    {
      "inputs": [],
      "name": "registerPatient",
      "outputs": [],
      "stateMutability": "payable",
      "type": "function"
    },
    {
      "inputs": [],
      "name": "renounceOwnership",
      "outputs": [],
      "stateMutability": "nonpayable",
      "type": "function"
    },
    {
      "inputs": [
        {
          "internalType": "string",
          "name": "_cid",
          "type": "string"
        }
      ],
      "name": "storeMedicalRecordHash",
      "outputs": [],
      "stateMutability": "nonpayable",
      "type": "function"
    },
    {
      "inputs": [
        {
          "internalType": "address",
          "name": "newOwner",
          "type": "address"
        }
      ],
      "name": "transferOwnership",
      "outputs": [],
      "stateMutability": "nonpayable",
      "type": "function"
    },
    {
      "inputs": [
        {
          "internalType": "address",
          "name": "",
          "type": "address"
        }
      ],
      "name": "users",
      "outputs": [
        {
          "internalType": "bool",
          "name": "registered",
          "type": "bool"
        },
        {
          "internalType": "enum EliteHealthSystem.Role",
          "name": "role",
          "type": "uint8"
        },
        {
          "internalType": "string",
          "name": "id",
          "type": "string"
        },
        {
          "internalType": "string",
          "name": "specialization",
          "type": "string"
        },
        {
          "internalType": "uint256",
          "name": "registrationDate",
          "type": "uint256"
        }
      ],
      "stateMutability": "view",
      "type": "function"
    }
  ],
  "bytecode": "0x6080604052662386f26fc1000060025566470de4df82000060035566b1a2bc2ec500006004553480156200003257600080fd5b506200003e336200013c565b60018080556040805160a0810182529182526003602080840182815283518085018552600881526741444d494e30303160c01b8184015285850152835180830185526000808252606087019190915242608087015233815260059092529290208351815490151560ff19821681178355935191939192849261ff00191661ffff199092169190911790610100908490811115620000df57620000df6200018c565b021790555060408201516001820190620000fa908262000247565b506060820151600282019062000111908262000247565b5060809190910151600390910155600a8054906000620001318362000313565b91905055506200033b565b600080546001600160a01b038381166001600160a01b0319831681178455604051919092169283917f8be0079c531659141344cd1fd0a4f28419497f9722a3daafe3b4186f6b6457e09190a35050565b634e487b7160e01b600052602160045260246000fd5b634e487b7160e01b600052604160045260246000fd5b600181811c90821680620001cd57607f821691505b602082108103620001ee57634e487b7160e01b600052602260045260246000fd5b50919050565b601f8211156200024257600081815260208120601f850160051c810160208610156200021d5750805b601f850160051c820191505b818110156200023e5782815560010162000229565b5050505b505050565b81516001600160401b03811115620002635762000263620001a2565b6200027b81620002748454620001b8565b84620001f4565b602080601f831160018114620002b357600084156200029a5750858301515b600019600386901b1c1916600185901b1785556200023e565b600085815260208120601f198616915b82811015620002e457888601518255948401946001909101908401620002c3565b5085821015620003035787850151600019600388901b60f8161c191681555b5050505050600190811b01905550565b6000600182016200033457634e487b7160e01b600052601160045260246000fd5b5060010190565b611760806200034b6000396000f3fe6080604052600436106100f35760003560e01c80638f09ab5b1161008a578063afd8297c11610059578063afd8297c146102fa578063dabf826a14610327578063f2fde38b1461033d578063fd10f3031461035d57600080fd5b80638f09ab5b1461024957806394f0df611461025c5780639f07e6ed14610289578063a87430ba146102c957600080fd5b806368f4e963116100c657806368f4e963146101f1578063715018a614610204578063822d3885146102195780638da5cb5b1461022157600080fd5b806312dc9013146100f8578063508ed4711461018b57806356881ac0146101ad5780636160a5c2146101d1575b600080fd5b34801561010457600080fd5b506101516101133660046111c5565b600860205260009081526040902080546001820154600283015460038401546004909401546001600160a01b03938416949390921692909160ff1685565b604080516001600160a01b0396871681529590941660208601529284019190915260608301521515608082015260a0015b60405180910390f35b34801561019757600080fd5b506101ab6101a63660046111de565b610373565b005b3480156101b957600080fd5b506101c360025481565b604051908152602001610182565b3480156101dd57600080fd5b506101ab6101ec366004611267565b61042e565b6101c36101ff366004611267565b610515565b34801561021057600080fd5b506101ab6106de565b6101ab6106f2565b34801561022d57600080fd5b506000546040516001600160a01b039091168152602001610182565b6101ab6102573660046111de565b6108a9565b34801561026857600080fd5b5061027c610277366004611289565b610a67565b6040516101829190611303565b34801561029557600080fd5b506102b96102a4366004611267565b60066020526000908152604090205460ff1681565b6040519015158152602001610182565b3480156102d557600080fd5b506102e96102e4366004611267565b610b20565b60405161018295949392919061132c565b34801561030657600080fd5b5061031a610315366004611267565b610c66565b6040516101829190611390565b34801561033357600080fd5b506101c360045481565b34801561034957600080fd5b506101ab610358366004611267565b610de8565b34801561036957600080fd5b506101c360035481565b600133600090815260056020526040902054610100900460ff16600381111561039e5761039e611316565b146103bc57604051638dbe942f60e01b815260040160405180910390fd5b336000908152600760209081526040822080546001810182559083529120016103e682848361148d565b50336001600160a01b03167f82d328778499f3b0b8d3019de6142bf719bc92f396a7836763e3f1523f6bb634838360405161042292919061154e565b60405180910390a25050565b600333600090815260056020526040902054610100900460ff16600381111561045957610459611316565b1461047757604051637bfa4b9f60e01b815260040160405180910390fd5b60026001600160a01b038216600090815260056020526040902054610100900460ff1660038111156104ab576104ab611316565b146104c9576040516354069c0760e01b815260040160405180910390fd5b6001600160a01b038116600081815260066020526040808220805460ff19166001179055517fcc36c734faf3e8e1867fdfc3adcdcab90ac2d8e24d1a4e6a06f4212045a4e75e9190a250565b6000600133600090815260056020526040902054610100900460ff16600381111561054257610542611316565b1461056057604051638dbe942f60e01b815260040160405180910390fd5b610568610e61565b6001600160a01b03821660009081526006602052604090205460ff166105a157604051633c5e2b1960e11b815260040160405180910390fd5b60045434146105d2576004805460405163b99e2ab760e01b8152918201523460248201526044015b60405180910390fd5b60098054600091826105e383611593565b909155506040805160a0810182523381526001600160a01b0386811660208084019182524284860190815260048054606087019081526000608088018181528a8252600890955297909720955186549086166001600160a01b0319918216178755935160018701805491909616941693909317909355915160028401559251600383015551908201805491151560ff199092169190911790555490915061068b908490610eba565b604080513381526001600160a01b038516602082015282917f293ab1017d4dce6bbfd2f1a97155e877709f29ee393b5226fe7d731879fe8b66910160405180910390a290506106d960018055565b919050565b6106e6610fef565b6106f06000611049565b565b6106fa610e61565b3360009081526005602052604090205460ff161561072b57604051630ea075bf60e21b815260040160405180910390fd5b600254341461075a5760025460405163b99e2ab760e01b815260048101919091523460248201526044016105c9565b6000610774600a546103e861076f91906115ac565b611099565b60405160200161078491906115c5565b60408051601f1981840301815260a0830182526001808452602080850191825284840183905283518082018552600080825260608701919091524260808701523381526005909152929092208351815490151560ff1982168117835593519295509092839161ff001990911661ffff199091161761010083600381111561080d5761080d611316565b02179055506040820151600182019061082690826115ef565b506060820151600282019061083b90826115ef565b5060809190910151600390910155600a805490600061085983611593565b9190505550336001600160a01b03167fc85b128388b9c331a2a5485dce4cd0f3db9f7c279d327ce95d6d39d6c94644c7826040516108979190611303565b60405180910390a2506106f060018055565b6108b1610e61565b3360009081526005602052604090205460ff16156108e257604051630ea075bf60e21b815260040160405180910390fd5b60035434146109115760035460405163b99e2ab760e01b815260048101919091523460248201526044016105c9565b6040805160a0810190915260018152602081016002815260200160405180602001604052806000815250815260200183838080601f01602080910402602001604051908101604052809392919081815260200183838082843760009201829052509385525050426020938401525033815260058252604090208251815490151560ff19821681178355928401519192839161ff001990911661ffff19909116176101008360038111156109c6576109c6611316565b0217905550604082015160018201906109df90826115ef565b50606082015160028201906109f490826115ef565b5060809190910151600390910155600a8054906000610a1283611593565b9190505550336001600160a01b03167f20481b8112b5bf4734f45a473c373db9df6a79ce946cdc0e7dbc22b4f7d7f9868383604051610a5292919061154e565b60405180910390a2610a6360018055565b5050565b60076020528160005260406000208181548110610a8357600080fd5b90600052602060002001600091509150508054610a9f90611408565b80601f0160208091040260200160405190810160405280929190818152602001828054610acb90611408565b8015610b185780601f10610aed57610100808354040283529160200191610b18565b820191906000526020600020905b815481529060010190602001808311610afb57829003601f168201915b505050505081565b6005602052600090815260409020805460018201805460ff8084169461010090940416929190610b4f90611408565b80601f0160208091040260200160405190810160405280929190818152602001828054610b7b90611408565b8015610bc85780601f10610b9d57610100808354040283529160200191610bc8565b820191906000526020600020905b815481529060010190602001808311610bab57829003601f168201915b505050505090806002018054610bdd90611408565b80601f0160208091040260200160405190810160405280929190818152602001828054610c0990611408565b8015610c565780601f10610c2b57610100808354040283529160200191610c56565b820191906000526020600020905b815481529060010190602001808311610c3957829003601f168201915b5050505050908060030154905085565b6060336001600160a01b0383161480610cc15750600233600090815260056020526040902054610100900460ff166003811115610ca557610ca5611316565b148015610cc157503360009081526006602052604090205460ff165b610cfe5760405162461bcd60e51b815260206004820152600e60248201526d139bdd08185d5d1a1bdc9a5e995960921b60448201526064016105c9565b6001600160a01b038216600090815260076020908152604080832080548251818502810185019093528083529193909284015b82821015610ddd578382906000526020600020018054610d5090611408565b80601f0160208091040260200160405190810160405280929190818152602001828054610d7c90611408565b8015610dc95780601f10610d9e57610100808354040283529160200191610dc9565b820191906000526020600020905b815481529060010190602001808311610dac57829003601f168201915b505050505081526020019060010190610d31565b505050509050919050565b610df0610fef565b6001600160a01b038116610e555760405162461bcd60e51b815260206004820152602660248201527f4f776e61626c653a206e6577206f776e657220697320746865207a65726f206160448201526564647265737360d01b60648201526084016105c9565b610e5e81611049565b50565b600260015403610eb35760405162461bcd60e51b815260206004820152601f60248201527f5265656e7472616e637947756172643a207265656e7472616e742063616c6c0060448201526064016105c9565b6002600155565b60006064610ec983605a6116af565b610ed391906116c6565b90506000610ee182846116e8565b90506000846001600160a01b03168360405160006040518083038185875af1925050503d8060008114610f30576040519150601f19603f3d011682016040523d82523d6000602084013e610f35565b606091505b505090506000610f4d6000546001600160a01b031690565b6001600160a01b03168360405160006040518083038185875af1925050503d8060008114610f97576040519150601f19603f3d011682016040523d82523d6000602084013e610f9c565b606091505b50509050818015610faa5750805b610fe75760405162461bcd60e51b815260206004820152600e60248201526d14185e5b595b9d0819985a5b195960921b60448201526064016105c9565b505050505050565b6000546001600160a01b031633146106f05760405162461bcd60e51b815260206004820181905260248201527f4f776e61626c653a2063616c6c6572206973206e6f7420746865206f776e657260448201526064016105c9565b600080546001600160a01b038381166001600160a01b0319831681178455604051919092169283917f8be0079c531659141344cd1fd0a4f28419497f9722a3daafe3b4186f6b6457e09190a35050565b6060816000036110c05750506040805180820190915260018152600360fc1b602082015290565b8160005b81156110ea57806110d481611593565b91506110e39050600a836116c6565b91506110c4565b60008167ffffffffffffffff811115611105576111056113f2565b6040519080825280601f01601f19166020018201604052801561112f576020820181803683370190505b509050815b85156111bc576111456001826116e8565b90506000611154600a886116c6565b61115f90600a6116af565b61116990886116e8565b6111749060306116fb565b905060008160f81b90508084848151811061119157611191611714565b60200101906001600160f81b031916908160001a9053506111b3600a896116c6565b97505050611134565b50949350505050565b6000602082840312156111d757600080fd5b5035919050565b600080602083850312156111f157600080fd5b823567ffffffffffffffff8082111561120957600080fd5b818501915085601f83011261121d57600080fd5b81358181111561122c57600080fd5b86602082850101111561123e57600080fd5b60209290920196919550909350505050565b80356001600160a01b03811681146106d957600080fd5b60006020828403121561127957600080fd5b61128282611250565b9392505050565b6000806040838503121561129c57600080fd5b6112a583611250565b946020939093013593505050565b60005b838110156112ce5781810151838201526020016112b6565b50506000910152565b600081518084526112ef8160208601602086016112b3565b601f01601f19169290920160200192915050565b60208152600061128260208301846112d7565b634e487b7160e01b600052602160045260246000fd5b851515815260006004861061135157634e487b7160e01b600052602160045260246000fd5b85602083015260a0604083015261136b60a08301866112d7565b828103606084015261137d81866112d7565b9150508260808301529695505050505050565b6000602080830181845280855180835260408601915060408160051b870101925083870160005b828110156113e557603f198886030184526113d38583516112d7565b945092850192908501906001016113b7565b5092979650505050505050565b634e487b7160e01b600052604160045260246000fd5b600181811c9082168061141c57607f821691505b60208210810361143c57634e487b7160e01b600052602260045260246000fd5b50919050565b601f82111561148857600081815260208120601f850160051c810160208610156114695750805b601f850160051c820191505b81811015610fe757828155600101611475565b505050565b67ffffffffffffffff8311156114a5576114a56113f2565b6114b9836114b38354611408565b83611442565b6000601f8411600181146114ed57600085156114d55750838201355b600019600387901b1c1916600186901b178355611547565b600083815260209020601f19861690835b8281101561151e57868501358255602094850194600190920191016114fe565b508682101561153b5760001960f88860031b161c19848701351681555b505060018560011b0183555b5050505050565b60208152816020820152818360408301376000818301604090810191909152601f909201601f19160101919050565b634e487b7160e01b600052601160045260246000fd5b6000600182016115a5576115a561157d565b5060010190565b808201808211156115bf576115bf61157d565b92915050565b61141560f21b8152600082516115e28160028501602087016112b3565b9190910160020192915050565b815167ffffffffffffffff811115611609576116096113f2565b61161d816116178454611408565b84611442565b602080601f831160018114611652576000841561163a5750858301515b600019600386901b1c1916600185901b178555610fe7565b600085815260208120601f198616915b8281101561168157888601518255948401946001909101908401611662565b508582101561169f5787850151600019600388901b60f8161c191681555b5050505050600190811b01905550565b80820281158282048414176115bf576115bf61157d565b6000826116e357634e487b7160e01b600052601260045260246000fd5b500490565b818103818111156115bf576115bf61157d565b60ff81811683821601908111156115bf576115bf61157d565b634e487b7160e01b600052603260045260246000fdfea26469706673582212201afab95d4783a113875300e39162669899dd42d709876cf99fcba07cf92eb6e164736f6c63430008130033",
  "linkReferences": {},
  "deployedLinkReferences": {}
}